:1000000012C0189518951895189518951895189563
:10001000189520C118951895189518951895189544
:100020001895189518958FE58DBFCCE4E2E34E2E18
:1000300084E08EBFD4E0F4E05F2EA89584B7082E4C
:10004000877F84BF88E1992781BD91BDEEEFF3E002
:10005000A0E6B0E088278D933197E9F766248FEF0B
:1000600087BB8FEF84BB8FEF81BBBA9AA09AA19A0E
:1000700083E083BF789479B7716079BF72E872BF0B
:1000800083E083BF53D28FE8D2018C9381E013D3F6
:1000900086D2229681E00BD371D25DD247D280E422
:1000A000D2018C9381E007D37AD2229681E0FFD2ED
:1000B00065D251D280E090E0A6E6B0E08D939C93AB
:1000C00080E090E0A8E6B0E08D939C9380E090E023
:1000D000AAE6B0E08D939C9380E090E0ACE6B0E0BF
:1000E0008D939C9380E090E0AEE6B0E08D939C937E
:1000F00080E090E0A0E7B0E08D939C9380E090E0FA
:10010000A2E7B0E08D939C93709163007F7D709324
:100110006300709163007F7E709363007091630051
:10012000777F70936300C298A898A99880E090E0C8
:10013000AFEDB0E08D939C93A0E6B0E08C9185FB91
:100140000EF001C008D1A8E6B0E00D911C9100307E
:1001500050E0150709F009C0AFEDB0E051D288EECC
:1001600093E0A8E6B0E08D939C93AAE6B0E00D91F1
:100170001C91003050E0150709F013C0A3E6B0E071
:100180008C9185FB882780F9809580FBA3E6B0E001
:100190008C9185F98C9388E592E0AAE6B0E08D9386
:1001A0009C93ACE6B0E00D911C91003050E0150737
:1001B00009F013C0A3E6B0E08C9184FB882780F996
:1001C000809580FBA3E6B0E08C9184F98C9384E663
:1001D00090E0ACE6B0E08D939C93AEE6B0E00D917C
:1001E0001C91003050E0150709F013C0A3E6B0E001
:1001F0008C9183FB882780F9809580FBA3E6B0E093
:100200008C9183F98C9382E491E0AEE6B0E08D931B
:100210009C93A0E7B0E00D911C91003050E01507D1
:1002200009F006C088EE93E0A0E7B0E08D939C93C0
:10023000A2E7B0E00D911C91003050E0150709F0E5
:1002400006C084E690E0A2E7B0E08D939C9374CF63
:10025000F894FFCF0F921F922F923F924F925F928E
:100260007F92AF92BF920F931F932F933F934F9321
:100270005F936F937F938F939F93AF93BF93CF932E
:10028000DF93EF93FF938FB78F9370916000706847
:100290007093600070916000706170936000709165
:1002A0006000706270936000A4E6B0E08C918F5F94
:1002B0008C9300916400013008F42FC080E080939B
:1002C000640081E08093650000916500023310F0C6
:1002D00009F023C0A5E6B0E0AD90BB24A4E6B0E0F1
:1002E000AA0CBB1CAA0DBB1D0D911C91003050E047
:1002F000150709F40BC0A5E6B0E0AD90BB24A4E659
:10030000B0E0AA0CBB1CAA0DBB1D81D1A5E6B0E0D4
:100310008C918F5F8C9308F4D7CF72E872BF8F9166
:100320008FBFFF91EF91DF91CF91BF91AF919F91DF
:100330008F917F916F915F914F913F912F911F917D
:100340000F91BF90AF907F905F904F903F902F9014
:100350001F900F901895709160007F7D70936000E2
:10036000AFEDB0E08D919C91ADEDB0E08D939C939D
:10037000ADEDB0E00D911C9148EE53E072D1A3EDCC
:10038000B0E04D935C93ADEDB0E00D911C9148EE63
:1003900053E067D1AAECB0E00D931C93AAECB0E057
:1003A0000D911C9144E650E05CD1A5EDB0E04D9379
:1003B0005C93AAECB0E00D911C9144E650E051D161
:1003C000ACECB0E00D931C93ACECB0E00D911C9143
:1003D0004AE050E046D1A7EDB0E04D935C93ACEC21
:1003E000B0E00D911C914AE050E03BD1A9EDB0E0A6
:1003F0000D931C9380E090E0ABEDB0E08D939C9367
:1004000095D080ECD2018C9381E055D1C8D0229652
:1004100081E04DD1B3D0ECE0F5E0A3EDB0E08D91FB
:100420009C91A2EDB0E05DD18091D200D2018C937D
:1004300081E041D1B4D0229681E039D19FD0ECE067
:10044000F5E0A5EDB0E08D919C91A2EDB0E049D131
:100450008091D200D2018C9381E02DD1A0D0229640
:1004600081E025D18BD0ECE0F5E0A7EDB0E08D91F7
:100470009C91A2EDB0E035D18091D200D2018C9355
:1004800081E019D18CD0229681E011D177D0ECE0B7
:10049000F5E0A9EDB0E08D919C91A2EDB0E021D105
:1004A0008091D200D2018C9381E005D178D0229640
:1004B00081E0FDD063D080E08093D200A3E6B0E07D
:1004C0008C9185FBA2EDB0E08C9181F98C93A3E631
:1004D000B0E08C9184FBA2EDB0E08C9180F98C931C
:1004E000A3E6B0E08C9183FBA2EDB0E08C9182F9A1
:1004F0008C938091D200D2018C9381E0DCD04FD0DC
:10050000229681E0D4D03AD026D008953F065B4FA2
:10051000666D7D077F6F777C3947797140000108F0
:100520004849707377543E713E383900939A929AD5
:1005300081E090E0A6E6B0E08D939C93A6E6B0E063
:100540000D911C91003050E0150709F001C001C069
:10055000F5CF9298089593989298EF93FF93E0E1E6
:10056000F0E099D0FF91EF91939AEF93FF93E0E140
:10057000F0E091D0FF91EF91929A08959398EF93C4
:10058000FF93E0E1F0E087D0FF91EF91939AEF9332
:10059000FF93E0E1F0E07FD0FF91EF91089580E0DC
:1005A0008093610000916100073010F009F027C0CE
:1005B000939880916100A881B981A0D095D00C90CA
:1005C0000822689409F4E894A2E3B0E08C9182F9DF
:1005D0008C93EF93FF93E0E1F0E05DD0FF91EF911A
:1005E000939AEF93FF93E0E1F0E055D0FF91EF9104
:1005F000A1E6B0E08C918F5F8C9308F4D3CF08957F
:10060000ED91FC91EF5FFF4FFC93EE930895ED9118
:10061000FC91E150F040FC93EE93089500FC10D063
:10062000089503D01ED001F8F9CF0024E89457FFB5
:1006300002C009D0689400F80BD010F80124089586
:1006400002D009D00895509540954F5F5F4F0895AF
:10065000E89417FF0895009510950F5F1F4F689459
:100660000895352F242FE894452B11F468940895AC
:10067000512F402F0027112780E1440F551F001FE5
:10068000111F021B130B416018F4020F131F4E7F42
:100690008A9599F708953197F1F70895689462F86B
:1006A0000895E89462F80895481A590A0895481A76
:1006B0008827580A089599275A924A92480E591E37
:1006C0000895C89531960020089591E005C092E004
:1006D00003C094E001C098E0F4DF0D929A95E1F731
:1006E0000895E80FF91FF1CF91E0882321F0889455
:1006F000991F8A95E9F7892F90950895883018F009
:0807000011968850FBCF08950B
:00000001FF
