:1000000012C0189518951895189518951895189563
:100010001895D0C018951895189518951895189595
:100020001895189518958FE58DBFCCE4E2E34E2E18
:1000300084E08EBFD4E0F4E05F2EA89584B7082E4C
:10004000877F84BF88E1992781BD91BDEEEFF3E002
:10005000A0E6B0E088278D933197E9F783E389B96B
:1000600080E080BD88E18AB966248FEF87BB8FEF7F
:1000700084BB8FEF81BBBA9AA09AA19A83E083BF19
:10008000789479B7716079BF72E872BF83E083BFFB
:10009000709163007F7D70936300709163007F7E39
:1000A0007093630070916300777F70936300C298D0
:1000B000A898A99881E08093E00085E08093DF0014
:1000C00080E090E0A6E6B0E08D939C9380E090E025
:1000D000A8E6B0E08D939C9380E090E0AAE6B0E0C3
:1000E0008D939C9380E090E0ACE6B0E08D939C9380
:1000F00080E090E0AEE6B0E08D939C93A0E6B0E0A7
:100100008C9185FB0EF001C0E6D0A8E6B0E00D9121
:100110001C91003050E0150709F013C0A2EEB0E0CA
:100120008C9184FB882780F9809580FBA2EEB0E05B
:100130008C9184F98C9388EE93E0A8E6B0E08D93DF
:100140009C93A3E6B0E08C9182FBA3E6B0E08C9197
:1001500085F98C93A3E6B0E08C9181FBA3E6B0E037
:100160008C9184F98C93A3E6B0E08C9180FBA3E69C
:10017000B0E08C9183F98C93A3E6B0E08C9182FB84
:10018000A8E3B0E08C9182F98C93A3E6B0E08C9167
:1001900081FBA5E3B0E08C9180F98C93A3E6B0E0FD
:1001A0008C9180FBA5E3B0E08C9181F98C93A6CF74
:1001B000F894FFCF0F921F922F923F924F925F922F
:1001C0007F92AF92BF920F931F932F933F934F93C2
:1001D0005F936F937F938F939F93AF93BF93CF93CF
:1001E000DF93EF93FF938FB78F93709160007068E8
:1001F0007093600070916000706170936000709106
:100200006000706270936000A4E6B0E08C918F5F34
:100210008C9300916400013008F42FC080E080933B
:10022000640081E08093650000916500053010F066
:1002300009F023C0A5E6B0E0AD90BB24A4E6B0E091
:10024000AA0CBB1CAA0DBB1D0D911C91003050E0E7
:10025000150709F40BC0A5E6B0E0AD90BB24A4E6F9
:10026000B0E0AA0CBB1CAA0DBB1DFED1A5E6B0E0F8
:100270008C918F5F8C9308F4D7CF72E872BF8F9107
:100280008FBFFF91EF91DF91CF91BF91AF919F9180
:100290008F917F916F915F914F913F912F911F911E
:1002A0000F91BF90AF907F905F904F903F902F90B5
:1002B0001F900F9018953F065B4F666D7D077F6F0F
:1002C000777C394779714000010848497073775449
:1002D0003E713E383900709160007F7D7093600000
:1002E000A1EEB0E08C91ADEDB0E08D9388278C93BA
:1002F000ADEDB0E00D911C9148EE53E0DFD1A3EDE0
:10030000B0E04D935C93ADEDB0E00D911C9148EEE3
:1003100053E0D4D1AAECB0E00D931C93AAECB0E06A
:100320000D911C9144E650E0C9D1A5EDB0E04D938C
:100330005C93AAECB0E00D911C9144E650E0BED174
:10034000ACECB0E00D931C93ACECB0E00D911C91C3
:100350004AE050E0B3D1A7EDB0E04D935C93ACEC34
:10036000B0E00D911C914AE050E0A8D1A9EDB0E0B9
:100370000D931C938A9A18D18FE8D2018C9381E057
:10038000D5D145D1229681E0CDD134D124D10CD123
:1003900080E4D2018C9381E0C9D139D1229681E0E9
:1003A000C1D128D118D100D180ECD2018C9381E049
:1003B000BDD12DD1229681E0B5D11CD1E6EBF2E082
:1003C000A3EDB0E08D919C91A2EDB0E0E7D1A2EE5B
:1003D000B0E08C9187FBA2EDB0E08C9187F98C9313
:1003E0008091D200D2018C9381E0A0D110D12296CD
:1003F00081E098D1FFD0E6EBF2E0A5EDB0E08D9181
:100400009C91A2EDB0E0CAD1A2EEB0E08C9186FB47
:10041000A2EDB0E08C9187F98C938091D200D2014B
:100420008C9381E083D1F3D0229681E07BD1E2D01E
:10043000E6EBF2E0A7EDB0E08D919C91A2EDB0E08B
:10044000ADD1A2EEB0E08C9185FBA2EDB0E08C9135
:1004500087F98C938091D200D2018C9381E066D190
:10046000D6D0229681E05ED1C5D0E6EBF2E0A9EDD0
:10047000B0E08D919C91A2EDB0E090D1A2EEB0E001
:100480008C9184FBA2EDB0E08C9187F98C938091E4
:10049000D200D2018C9381E049D1B9D0229681E07B
:1004A00041D1A8D080E08093D200A3E6B0E08C9147
:1004B00085FBA2EDB0E08C9181F98C93A3E6B0E0CE
:1004C0008C9184FBA2EDB0E08C9180F98C93A3E633
:1004D000B0E08C9183FBA2EDB0E08C9182F98C931B
:1004E0008091D200D2018C9381E020D190D02296CD
:1004F00081E018D17FD06FD057D082E4D2018C93A5
:1005000081E014D184D0229681E00CD173D080E0B8
:100510008093E1008A988B9A8A98939898E081E07A
:10052000182EA1EEB0E008D1939A00000000889444
:10053000829908941AD19398000000009A95A1F727
:10054000A1EEB0E005D10091E1000F3E09F006C038
:100550007091630074607093630025C00091E100A6
:100560000F3609F006C070916300726070936300EB
:100570001AC00091E1000F3A09F006C070916300C3
:100580007160709363000FC0709163007B7F709304
:100590006300709163007D7F7093630070916300CE
:1005A0007E7F709363000895939A929AAFEDB0E0C6
:1005B0008C91A6E6B0E08D9388278C93A6E6B0E0F8
:1005C0000D911C91003050E0150709F001C001C0E9
:1005D000F5CF9298089593989298A0EEB0E0EC91A0
:1005E000FF2789D0939AA0EEB0E0EC91FF2783D04B
:1005F000929A08959398A0EEB0E0EC91FF277BD0FB
:10060000939AA0EEB0E0EC91FF2775D0089580E0BA
:100610008093610000916100073010F009F023C061
:10062000939880916100A881B981C5D0BAD00C900F
:100630000822689409F4E894A2E3B0E08C9182F96E
:100640008C93A0EEB0E0EC91FF2755D0939AA0EEEA
:10065000B0E0EC91FF274FD0A1E6B0E08C918F5F26
:100660008C9308F4D7CF0895ED91FC91E150F040C0
:10067000FC93EE93089500FC10D0089503D01ED093
:1006800001F8F9CF0024E89457FF02C009D068941C
:1006900000F80BD010F80124089502D009D0089575
:1006A000509540954F5F5F4F0895E89417FF089568
:1006B000009510950F5F1F4F68940895352F242FD4
:1006C000E894452B11F468940895512F402F00278A
:1006D000112780E1440F551F001F111F021B130B30
:1006E000416018F4020F131F4E7F8A9599F7089501
:1006F0003197F1F70895E03019F4F03019F40895C6
:100700000000000000000000000000003197D1F759
:100710000895689462F80895E89462F80895481A74
:10072000590A0895481A8827580A089599275A920D
:100730004A92480E591E0895812DFF27E0E10D9041
:1007400001928A95E1F70895FF27E8E1E119F7CFD3
:10075000812DFF27E0E101900D928A95E1F7089540
:10076000FF27E8E1E119812DF6CF001F111F221F9D
:10077000331F441F551F661F771F0895C895319674
:100780000020089591E005C092E003C094E001C00C
:1007900098E0F4DF0D929A95E1F70895E80FF91FBC
:1007A000F1CF91E0882321F08894991F8A95E9F789
:1007B000892F90950895883018F011968850FBCFB6
:0207C00008959A
:00000001FF
