:1000000012C0189518951895189518951895189563
:100010001895189518951895189518951895189578
:100020001895189518958FE58DBFC0E4E8E34E2E1E
:1000300084E08EBFD4E0F4E05F2EA89584B7082E4C
:10004000877F84BF88E1992781BD91BDEEEFF3E002
:10005000A0E6B0E088278D933197E9F783E389B96B
:1000600080E080BD88E18AB966248FEF87BB8FEF7F
:1000700084BB80E081BBBA9AA09AA19A88E893E1F8
:10008000A0E6B0E08D939C93C29AA898A998A0E6A8
:10009000B0E08D919C913CD0C298A89AA998A0E616
:1000A000B0E08D919C9134D0C298A898A99AA0E60E
:1000B000B0E08D919C912CD0C29AA89AA998A0E604
:1000C000B0E08D919C9124D0C298A898A998A0E600
:1000D000B0E08D919C911CD0C29AA89AA99AA0E6F2
:1000E000B0E08D919C9114D0C298A898A998A0E6F0
:1000F000B0E08D919C910CD0C7CFF894FFCF319791
:10010000F1F70895689462F80895E89462F8089504
:10011000EF93FF93EE27E82BE92B31F0E0EDF7E0CA
:0E0120003197F1F70197D1F7FF91EF91089514
:00000001FF
