:1000000012C0189518951895189518951895189563
:100010001895D6C01895189518951895189518958F
:100020001895189518958FE58DBFCCE4E2E34E2E18
:1000300084E08EBFD4E0F4E05F2EA89584B7082E4C
:10004000877F84BF88E1992781BD91BDEEEFF3E002
:10005000A0E6B0E088278D933197E9F783E389B96B
:1000600080E080BD88E18AB966248FEF87BB8FEF7F
:1000700084BB8FEF81BBBA9AA09AA19A83E083BF19
:10008000789479B7716079BF72E872BF83E083BFFB
:1000900080E090E0A6E6B0E08D939C9380E090E055
:1000A000A8E6B0E08D939C9380E090E0AAE6B0E0F3
:1000B0008D939C9380E090E0ACE6B0E08D939C93B0
:1000C00080E090E0AEE6B0E08D939C937091630089
:1000D0007F7D70936300709163007F7E70936300F7
:1000E00070916300777F70936300C298A898A99875
:1000F00081E08093E70085E08093E60080E090E077
:10010000AFEDB0E08D939C93A0E6B0E08C9185FBC1
:100110000EF001C0D6D0A8E6B0E00D911C910030E1
:1001200050E0150709F013C0A9EEB0E08C9184FBF4
:10013000882780F9809580FBA9EEB0E08C9184F946
:100140008C9388EE93E0A8E6B0E08D939C93A3E6B1
:10015000B0E08C9182FBA3E6B0E08C9185F98C93A2
:10016000A3E6B0E08C9181FBA3E6B0E08C9184F92A
:100170008C93A3E6B0E08C9180FBA3E6B0E08C9179
:1001800083F98C93A3E6B0E08C9182FBA8E3B0E006
:100190008C9182F98C93A3E6B0E08C9181FBA5E36E
:1001A000B0E08C9180F98C93A3E6B0E08C9180FB59
:1001B000A5E3B0E08C9181F98C93A6CFF894FFCFA2
:1001C0000F921F922F923F924F925F927F92AF9227
:1001D000BF920F931F932F933F934F935F936F9310
:1001E0007F938F939F93AF93BF93CF93DF93EF93BF
:1001F000FF938FB78F937091600070687093600069
:100200007091600070617093600070916000706226
:1002100070936000A4E6B0E08C918F5F8C930091A6
:100220006400013008F42FC080E08093640081E016
:100230008093650000916500053010F009F023C03F
:10024000A5E6B0E0AD90BB24A4E6B0E0AA0CBB1CD0
:10025000AA0DBB1D0D911C91003050E0150709F44B
:100260000BC0A5E6B0E0AD90BB24A4E6B0E0AA0CBC
:10027000BB1CAA0DBB1DFED1A5E6B0E08C918F5F23
:100280008C9308F4D7CF72E872BF8F918FBFFF9124
:10029000EF91DF91CF91BF91AF919F918F917F911E
:1002A0006F915F914F913F912F911F910F91BF904F
:1002B000AF907F905F904F903F902F901F900F9046
:1002C0001895709160007F7D70936000A8EEB0E09B
:1002D0008C91ADEDB0E08D9388278C93ADEDB0E0BF
:1002E0000D911C9148EE53E0EFD1A3EDB0E04D939A
:1002F0005C93ADEDB0E00D911C9148EE53E0E4D17C
:10030000AAECB0E00D931C93AAECB0E00D911C9107
:1003100044E650E0D9D1A5EDB0E04D935C93AAEC52
:10032000B0E00D911C9144E650E0CED1ACECB0E0D1
:100330000D931C93ACECB0E00D911C914AE050E0A1
:10034000C3D1A7EDB0E04D935C93ACECB0E00D9160
:100350001C914AE050E0B8D1A9EDB0E00D931C9398
:100360008A9A28D18FE8D2018C9381E0E5D155D1CA
:10037000229681E0DDD144D134D11CD180E4D20178
:100380008C9381E0D9D149D1229681E0D1D138D165
:1003900028D110D180ECD2018C9381E0CDD13DD118
:1003A000229681E0C5D12CD1E4E9F5E0A3EDB0E0DF
:1003B0008D919C91A2EDB0E0F7D1A9EEB0E08C91C7
:1003C00087FBA2EDB0E08C9187F98C938091D200ED
:1003D000D2018C9381E0B0D120D1229681E0A8D1C6
:1003E0000FD1E4E9F5E0A5EDB0E08D919C91A2ED8F
:1003F000B0E0DAD1A9EEB0E08C9186FBA2EDB0E0DE
:100400008C9187F98C938091D200D2018C9381E0FA
:1004100093D103D1229681E08BD1F2D0E4E9F5E0CB
:10042000A7EDB0E08D919C91A2EDB0E0BDD1A9EE19
:10043000B0E08C9185FBA2EDB0E08C9187F98C93B4
:100440008091D200D2018C9381E076D1E6D02296C1
:1004500081E06ED1D5D0E4E9F5E0A9EDB0E08D9171
:100460009C91A2EDB0E0A0D1A9EEB0E08C9184FB0C
:10047000A2EDB0E08C9187F98C938091D200D201EB
:100480008C9381E059D1C9D0229681E051D1B8D066
:1004900080E08093D200A3E6B0E08C9185FBA2EDD2
:1004A000B0E08C9181F98C93A3E6B0E08C9184FB51
:1004B000A2EDB0E08C9180F98C93A3E6B0E08C9132
:1004C00083FBA2EDB0E08C9182F98C938091D200F5
:1004D000D2018C9381E030D1A0D0229681E028D146
:1004E0008FD07FD067D082E4D2018C9381E024D179
:1004F00094D0229681E01CD183D080E08093E800E4
:100500008A988B9A8A98939898E081E0182EA8EEA2
:10051000B0E018D1939A0000000088948299089462
:100520002AD19398000000009A95A1F7A8EEB0E0B8
:1005300015D10091E8000F3E09F006C070916300EC
:1005400074607093630025C00091E8000F3609F0D5
:1005500006C0709163007260709363001AC00091CE
:10056000E8000F3A09F006C0709163007160709363
:1005700063000FC0709163007B7F70936300709184
:1005800063007D7F70936300709163007E7F709342
:10059000630008953F065B4F666D7D077F6F777C34
:1005A00039477971400001084849707377543E71AA
:1005B0003E383900939A929AA6EEB0E08C91A6E666
:1005C000B0E08D9388278C93A6E6B0E00D911C9146
:1005D000003050E0150709F001C001C0F5CF929836
:1005E000089593989298A7EEB0E0EC91FF2789D0F8
:1005F000939AA7EEB0E0EC91FF2783D0929A0895EA
:100600009398A7EEB0E0EC91FF277BD0939AA7EEEA
:10061000B0E0EC91FF2775D0089580E080936100F1
:1006200000916100073010F009F023C09398809189
:100630006100A881B981C5D0BAD00C900822689415
:1006400009F4E894A2E3B0E08C9182F98C93A7EED0
:10065000B0E0EC91FF2755D0939AA7EEB0E0EC9173
:10066000FF274FD0A1E6B0E08C918F5F8C9308F408
:10067000D7CF0895ED91FC91E150F040FC93EE93BB
:10068000089500FC10D0089503D01ED001F8F9CFD2
:100690000024E89457FF02C009D0689400F80BD0FA
:1006A00010F80124089502D009D00895509540957E
:1006B0004F5F5F4F0895E89417FF089500951095D8
:1006C0000F5F1F4F68940895352F242FE894452B12
:1006D00011F468940895512F402F0027112780E1CD
:1006E000440F551F001F111F021B130B416018F40C
:1006F000020F131F4E7F8A9599F708953197F1F7EE
:100700000895E03019F4F03019F408950000000065
:1007100000000000000000003197D1F708956894B0
:1007200062F80895E89462F80895481A590A0895FD
:10073000481A8827580A089599275A924A92480ECB
:10074000591E0895812DFF27E0E10D9001928A95B1
:10075000E1F70895FF27E8E1E119F7CF812DFF27A1
:10076000E0E101900D928A95E1F70895FF27E8E115
:10077000E119812DF6CF001F111F221F331F441FC7
:10078000551F661F771F0895C8953196002008955C
:1007900091E005C092E003C094E001C098E0F4DF6E
:1007A0000D929A95E1F70895E80FF91FF1CF91E0C6
:1007B000882321F08894991F8A95E9F7892F9095CD
:0E07C0000895883018F011968850FBCF0895E8
:00000001FF
