:1000000012C0189518951895189518951895189563
:10001000189517C11895189518951895189518954D
:100020001895189518958FE58DBFCCE4E2E34E2E18
:1000300084E08EBFD4E0F4E05F2EA89584B7082E4C
:10004000877F84BF88E1992781BD91BDEEEFF3E002
:10005000A0E6B0E088278D933197E9F766248FEF0B
:1000600087BB8FEF84BB8FEF81BBBA9AA09AA19A0E
:1000700083E083BF789479B7716079BF72E872BF0B
:1000800083E083BF5CD28FE8D2018C9381E01ED3E2
:1000900087D2229681E016D376D266D280E090E0B5
:1000A000A6E6B0E08D939C9380E090E0A8E6B0E0F7
:1000B0008D939C9380E090E0AAE6B0E08D939C93B2
:1000C00080E090E0ACE6B0E08D939C9380E090E01F
:1000D000AEE6B0E08D939C9380E090E0A0E7B0E0C6
:1000E0008D939C9380E090E0A2E7B0E08D939C9389
:1000F000709163007F7D70936300709163007F7ED9
:100100007093630070916300777F70936300C2986F
:10011000A898A9988CE08093E60080E090E0AFED8D
:10012000B0E08D939C93A0E6B0E08C9185FB0EF03F
:1001300001C008D1A8E6B0E00D911C91003050E05C
:10014000150709F009C0AFEDB0E057D288EE93E093
:10015000A8E6B0E08D939C93AAE6B0E00D911C91C7
:10016000003050E0150709F013C0A3E6B0E08C9111
:1001700085FB882780F9809580FBA3E6B0E08C9111
:1001800085F98C9388E592E0AAE6B0E08D939C9384
:10019000ACE6B0E00D911C91003050E0150709F07D
:1001A00013C0A3E6B0E08C9184FB882780F980958A
:1001B00080FBA3E6B0E08C9184F98C9384E690E018
:1001C000ACE6B0E08D939C93AEE6B0E00D911C914F
:1001D000003050E0150709F013C0A3E6B0E08C91A1
:1001E00083FB882780F9809580FBA3E6B0E08C91A3
:1001F00083F98C9382E491E0AEE6B0E08D939C931A
:10020000A0E7B0E00D911C91003050E0150709F017
:1002100006C088EE93E0A0E7B0E08D939C93A2E740
:10022000B0E00D911C91003050E0150709F006C0B8
:1002300084E690E0A2E7B0E08D939C9374CFF894AD
:10024000FFCF0F921F922F923F924F925F927F9219
:10025000AF92BF920F931F932F933F934F935F9350
:100260006F937F938F939F93AF93BF93CF93DF93BE
:10027000EF93FF938FB78F937091600070687093C6
:100280006000709160007061709360007091600018
:10029000706270936000A4E6B0E08C918F5F8C93E5
:1002A00000916400013008F42FC080E08093640066
:1002B00081E08093650000916500023310F009F041
:1002C00023C0A5E6B0E0AD90BB24A4E6B0E0AA0C44
:1002D000BB1CAA0DBB1D0D911C91003050E01507F1
:1002E00009F40BC0A5E6B0E0AD90BB24A4E6B0E0F5
:1002F000AA0CBB1CAA0DBB1D87D1A5E6B0E08C9152
:100300008F5F8C9308F4D7CF72E872BF8F918FBF45
:10031000FF91EF91DF91CF91BF91AF919F918F911D
:100320007F916F915F914F913F912F911F910F910D
:10033000BF90AF907F905F904F903F902F901F9015
:100340000F901895709160007F7D70936000AFED05
:10035000B0E08D919C91ADEDB0E08D939C93ADEDAF
:10036000B0E00D911C9148EE53E078D1A3EDB0E0E0
:100370004D935C93ADEDB0E00D911C9148EE53E0D0
:100380006DD1AAECB0E00D931C93AAECB0E00D91F6
:100390001C9144E650E062D1A5EDB0E04D935C9332
:1003A000AAECB0E00D911C9144E650E057D1ACECC2
:1003B000B0E00D931C93ACECB0E00D911C914AE0C1
:1003C00050E04CD1A7EDB0E04D935C93ACECB0E0C5
:1003D0000D911C914AE050E041D1A9EDB0E00D93A0
:1003E0001C938A9AACD080E4D2018C9381E06ED1C8
:1003F000D7D0229681E066D1C6D0B6D0A0D080EC0E
:10040000D2018C9381E062D1CBD0229681E05AD187
:10041000BAD0EEE1F5E0A3EDB0E08D919C91A2EDB4
:10042000B0E06AD18091D200D2018C9381E04ED1AC
:10043000B7D0229681E046D1A6D0EEE1F5E0A5ED59
:10044000B0E08D919C91A2EDB0E056D18091D200A8
:10045000D2018C9381E03AD1A3D0229681E032D1AF
:1004600092D0EEE1F5E0A7EDB0E08D919C91A2ED88
:10047000B0E042D18091D200D2018C9381E026D1AC
:100480008FD0229681E01ED17ED0EEE1F5E0A9ED7D
:10049000B0E08D919C91A2EDB0E02ED18091D20080
:1004A000D2018C9381E012D17BD0229681E00AD1D7
:1004B0006AD080E08093D200A3E6B0E08C9185FB07
:1004C000A2EDB0E08C9181F98C93A3E6B0E08C9121
:1004D00084FBA2EDB0E08C9180F98C93A3E6B0E0B0
:1004E0008C9183FBA2EDB0E08C9182F98C9380918A
:1004F000D200D2018C9381E0E9D052D0229681E0E3
:10050000E1D041D031D01BD082E4D2018C9381E084
:10051000DDD046D0229681E0D5D08A9808953F0656
:100520005B4F666D7D077F6F777C3947797140003F
:1005300001084849707377543E713E383900939AE8
:10054000929A81E090E0A6E6B0E08D939C93A6E6B7
:10055000B0E00D911C91003050E0150709F001C08A
:1005600001C0F5CF9298089593989298A6EEB0E0C6
:10057000EC91FF2790D0939AA6EEB0E0EC91FF2784
:100580008AD0929A08959398A6EEB0E0EC91FF2756
:1005900082D0939AA6EEB0E0EC91FF277CD008952C
:1005A00080E08093610000916100073010F009F055
:1005B00023C0939880916100A881B981AAD09FD06F
:1005C0000C900822689409F4E894A2E3B0E08C91BE
:1005D00082F98C93A6EEB0E0EC91FF275CD0939A61
:1005E000A6EEB0E0EC91FF2756D0A1E6B0E08C91EA
:1005F0008F5F8C9308F4D7CF0895ED91FC91EF5F56
:10060000FF4FFC93EE930895ED91FC91E150F04083
:10061000FC93EE93089500FC10D0089503D01ED0F3
:1006200001F8F9CF0024E89457FF02C009D068947C
:1006300000F80BD010F80124089502D009D00895D5
:10064000509540954F5F5F4F0895E89417FF0895C8
:10065000009510950F5F1F4F68940895352F242F34
:10066000E894452B11F468940895512F402F0027EA
:10067000112780E1440F551F001F111F021B130B90
:10068000416018F4020F131F4E7F8A9599F7089561
:100690003197F1F70895E03019F4F03019F4089526
:1006A0000000000000000000000000003197D1F7BA
:1006B0000895689462F80895E89462F80895481AD5
:1006C000590A0895481A8827580A089599275A926E
:1006D0004A92480E591E0895C895319600200895F3
:1006E00091E005C092E003C094E001C098E0F4DF1F
:1006F0000D929A95E1F70895E80FF91FF1CF91E077
:10070000882321F08894991F8A95E9F7892F90957D
:0E0710000895883018F011968850FBCF089598
:00000001FF
