:1000000012C0189518951895189518951895189563
:100010001895DDC018951895189518951895189588
:100020001895189518958FE58DBFCCE4EAE04E2E13
:1000300084E08EBFD4E0F4E05F2EA89584B7082E4C
:10004000877F84BF88E1992781BD91BDEEEFF3E002
:10005000A0E6B0E088278D933197E9F783E389B96B
:1000600080E080BD88E18AB966248FEF87BB8FEF7F
:1000700084BB8FEF81BBBA9AA09AA19A83E083BF19
:10008000789479B7716079BF7CE972BF83E083BFF0
:10009000709160007F7D70936000709160007F7E42
:1000A0007093600070916000777F70936000C298D9
:1000B000A898A99881E08093CB0085E08093CA003E
:1000C00080E090E0A4E6B0E08D939C9388EE93E00E
:1000D000A6E6B0E08D939C9380E090E0A8E6B0E0C7
:1000E0008D939C9380E090E0AAE6B0E08D939C9382
:1000F00080E090E0ACE6B0E08D939C93A0E6B0E0A9
:100100008C9187FB0EF00BC0A8ECB0E0BA93AA93D9
:10011000EAD02296709160007F7770936000A6E627
:10012000B0E00D911C91003050E0150709F016C0A9
:10013000A8ECB0E094D2ADECB0E08C9184FB8827C1
:1001400080F9809580FBADECB0E08C9184F98C93C4
:1001500088EE93E0A6E6B0E08D939C93A0E6B0E035
:100160008C9182FBA0E6B0E08C9185F98C93A0E69F
:10017000B0E08C9181FBA0E6B0E08C9184F98C9387
:10018000A0E6B0E08C9180FBA0E6B0E08C9183F912
:100190008C93A0E6B0E08C9182FBA8E3B0E08C9158
:1001A00082F98C93A0E6B0E08C9181FBA5E3B0E0EE
:1001B0008C9180F98C93A0E6B0E08C9180FBA5E354
:1001C000B0E08C9181F98C9399CFF894FFCF0F9286
:1001D0001F922F923F924F925F927F92AF92BF9267
:1001E0000F931F932F933F934F935F936F937F933F
:1001F0008F939F93AF93BF93CF93DF93EF93FF932F
:100200008FB78F93709160007064709360007091ED
:100210006000706870936000A2E6B0E08C918F5F20
:100220008C9300916200013008F42FC080E080932D
:10023000620081E08093630000916300053010F05C
:1002400009F023C0A3E6B0E0AD90BB24A2E6B0E085
:10025000AA0CBB1CAA0DBB1D0D911C91003050E0D7
:10026000150709F40BC0A3E6B0E0AD90BB24A2E6ED
:10027000B0E0AA0CBB1CAA0DBB1DF8D1A3E6B0E0F0
:100280008C918F5F8C9308F4D7CF7CE972BF8F91EC
:100290008FBFFF91EF91DF91CF91BF91AF919F9170
:1002A0008F917F916F915F914F913F912F911F910E
:1002B0000F91BF90AF907F905F904F903F902F90A5
:1002C0001F900F9018953F065B4F666D7D077F6FFF
:1002D000777C394779714000010848497073775439
:1002E0003E713E383900A881B9810D911C9148EECC
:1002F00053E0E6D1A8EDB0E04D935C93A881B981BD
:100300000D911C9148EE53E0DBD1AFECB0E00D93C2
:100310001C93AFECB0E00D911C9144E650E0D0D1BD
:10032000AAEDB0E04D935C93AFECB0E00D911C9161
:1003300044E650E0C5D1A1EDB0E00D931C93A1EDD2
:10034000B0E00D911C914AE050E0BAD1ACEDB0E0C4
:100350004D935C93A1EDB0E00D911C914AE050E00B
:10036000AFD1AEEDB0E00D931C938A9A18D18FE80F
:10037000D2018C9381E0DCD145D1229681E0D4D1A9
:1003800034D124D10CD180E4D2018C9381E0D0D13E
:1003900039D1229681E0C8D128D118D100D180EC82
:1003A000D2018C9381E0C4D12DD1229681E0BCD1C1
:1003B0001CD1E6ECF2E0A8EDB0E08D919C91A7EDA8
:1003C000B0E0EED1ADECB0E08C9187FBA7EDB0E0F2
:1003D0008C9187F98C938091D700D2018C9381E026
:1003E000A7D110D1229681E09FD1FFD0E6ECF2E0B8
:1003F000AAEDB0E08D919C91A7EDB0E0D1D1ADEC2C
:10040000B0E08C9186FBA7EDB0E08C9187F98C93DE
:100410008091D700D2018C9381E08AD1F3D02296CB
:1004200081E082D1E2D0E6ECF2E0ACEDB0E08D917B
:100430009C91A7EDB0E0B4D1ADECB0E08C9185FB20
:10044000A7EDB0E08C9187F98C938091D700D20111
:100450008C9381E06DD1D6D0229681E065D1C5D054
:10046000E6ECF2E0AEEDB0E08D919C91A7EDB0E04E
:1004700097D1ADECB0E08C9184FBA7EDB0E08C910E
:1004800087F98C938091D700D2018C9381E050D171
:10049000B9D0229681E048D1A8D080E08093D700DF
:1004A000A0E6B0E08C9185FBA7EDB0E08C9181F9DE
:1004B0008C93A0E6B0E08C9184FBA7EDB0E08C912A
:1004C00080F98C93A0E6B0E08C9183FBA7EDB0E0BF
:1004D0008C9182F98C938091D700D2018C9381E02A
:1004E00027D190D0229681E01FD17FD06FD057D0F6
:1004F00082E4D2018C9381E01BD184D0229681E0EA
:1005000013D173D080E08093CC008A988B9A8A981C
:10051000939898E081E0182EACECB0E00FD1939A5C
:100520000000000088948299089421D193980000DB
:1005300000009A95A1F7ACECB0E00CD10091CC0092
:100540000F3E09F006C07091600074607093600007
:1005500025C00091CC000F3609F006C070916000F4
:100560007260709360001AC00091CC000F3A09F0DD
:1005700006C0709160007160709360000FC0709150
:1005800060007B7F70936000709160007D7F70934E
:100590006000709160007E7F709360000895939A70
:1005A000929AAAECB0E08C91A4E6B0E08D938827F3
:1005B0008C93A4E6B0E00D911C91003050E015073B
:1005C00009F001C001C0F5CF9298089593989298D0
:1005D000ABECB0E0EC91FF2790D0939AABECB0E09D
:1005E000EC91FF278AD0929A08959398ABECB0E0F3
:1005F000EC91FF2782D0939AABECB0E0EC91FF270F
:100600007CD0089580E08093610000916100073004
:1006100010F009F023C0939880916100A881B981FE
:10062000CCD0C1D00C900822689409F4E894A2E3DD
:10063000B0E08C9182F98C93ABECB0E0EC91FF27A9
:100640005CD0939AABECB0E0EC91FF2756D0A1E6DA
:10065000B0E08C918F5F8C9308F4D7CF0895ED9123
:10066000FC91EF5FFF4FFC93EE930895ED91FC91A9
:10067000E150F040FC93EE93089500FC10D00895F3
:1006800003D01ED001F8F9CF0024E89457FF02C030
:1006900009D0689400F80BD010F80124089502D016
:1006A00009D00895509540954F5F5F4F0895E894A5
:1006B00017FF0895009510950F5F1F4F68940895D8
:1006C000352F242FE894452B11F468940895512F69
:1006D000402F0027112780E1440F551F001F111FD5
:1006E000021B130B416018F4020F131F4E7F8A95F3
:1006F00099F708953197F1F70895E03019F4F03043
:1007000019F408950000000000000000000000003F
:100710003197D1F70895689462F80895E89462F8E3
:100720000895481A590A0895481A8827580A0895BA
:1007300099275A924A92480E591E0895812DFF27F3
:10074000E0E10D9001928A95E1F70895FF27E8E135
:10075000E119F7CF812DFF27E0E101900D928A95F5
:10076000E1F70895FF27E8E1E119812DF6CF001F99
:10077000111F221F331F441F551F661F771F089527
:10078000C89531960020089591E005C092E003C01D
:1007900094E001C098E0F4DF0D929A95E1F7089596
:1007A000E80FF91FF1CF91E0882321F08894991F79
:1007B0008A95E9F7892F90950895883018F0119659
:0607C0008850FBCF0895F4
:00000001FF
